S00D000037206C65642E737265638B
S11300000C942A000C9434000C9434000C943400A6
S11300100C9434000C9434000C9434000C9434008C
S11300200C9434000C9434000C9434000C9434007C
S11300300C9434000C9434000C9434000C9434006C
S11300400C9434000C9434000C9434000C9434005C
S11300500C94340011241FBECFE5D8E0DEBFCDBF21
S11300600E9436000C9480000C940000CF93DF9320
S113007000D0CDB7DEB78FEF8ABB1A8219821AC0BF
S11300802FEF84E39CE0215080409040E1F700C0D2
S113009000002BB349815A8181E090E002C0880FAF
S11300A0991F4A95E2F7822B8BBB89819A8101962D
S11300B09A83898389819A81089710F31BC02FEF53
S11300C084E39CE0215080409040E1F700C00000B0
S11300D02BB349815A8181E090E002C0880F991FB7
S11300E04A95E2F7809582238BBB89819A81019797
S11300F09A83898389819A818F3F910501F7BDCFC6
S1070100F894FFCF9D
S9030000FC
