S00B000050574D2E7372656325
S11300000C942A000C943C000C943C000C943C008E
S11300100C943C000C943C000C943C000C943C006C
S11300200C943C000C943C000C94A0000C947900BB
S11300300C943C000C943C000C943C000C943C004C
S11300400C943C000C943C000C943C000C943C003C
S11300500C943C0011241FBECFE5D8E0DEBFCDBF19
S113006020E0A0E6B0E001C01D92AB36B207E1F794
S11300700E94EC000C9407010C940000CF93DF93D2
S1130080EC0185E0FE01A6E6B0E001900D928A95B0
S1130090E1F793B78881892B83BF8881883711F072
S11300A0883619F487B3886087BB93B78981892B15
S11300B083BF89818650823018F487B38E7F87BBD3
S11300C099B78A81892B89BF8A81882321F08FB7C8
S11300D080688FBF03C08FB78F778FBF8B819C8160
S11300E09093610080936000DF91CF9108958CBF5D
S11300F008951F920F920FB60F9211242F933F93DE
S11301004F935F936F937F938F939F93AF93BF931B
S1130110EF93FF93E0916000F09161000995FF91E6
S1130120EF91BF91AF919F918F917F916F915F916B
S11301304F913F912F910F900FBE0F901F901895E4
S11301401F920F920FB60F9211242F933F934F9348
S11301505F936F937F938F939F93AF93BF93EF932B
S1130160FF93E0916000F09161000995FF91EF9198
S1130170BF91AF919F918F917F916F915F914F91BB
S11301803F912F910F900FBE0F901F901895809163
S1130190620090916300A0916400B09165000196A3
S11301A0A11DB11D8093620090936300A09364002D
S11301B0B093650080319742A105B10561F492B313
S11301C081E0892782BB1092620010926300109232
S11301D06400109265000895CF93DF9300D000D09F
S11301E01F92CDB7DEB781B3816081BB84E60E94E4
S11301F0770088E0898382E08A838B8387EC90E0B0
S11302009D838C83CE0101960E943E00FFCFF8941B
S1050210FFCF1A
S9030000FC
