:100000000C942A000C9434000C9434000C943400AA
:100010000C9434000C9434000C9434000C94340090
:100020000C9434000C9434000C9434000C94340080
:100030000C9434000C9434000C9434000C94340070
:100040000C9434000C9434000C9434000C94340060
:100050000C94340011241FBECFE5D8E0DEBFCDBF25
:100060000E9436000C945E000C940000CF93DF9346
:1000700000D0CDB7DEB78FEF8ABB14BA85BB1A822A
:1000800019829899FECF2BB349815A8181E090E083
:1000900002C0880F991F4A95E2F7822B8BBB89819A
:1000A0009A8101969A8389832FE78AE196E021500D
:1000B00080409040E1F700C00000E3CFF894FFCF0C
:00000001FF
