S0110000375F7365676D656E742E737265638A
S11300000C942A000C9434000C9434000C943400A6
S11300100C9434000C9434000C9434000C9434008C
S11300200C9434000C9434000C9434000C9434007C
S11300300C9434000C9434000C9434000C9434006C
S11300400C9434000C9434000C9434000C9434005C
S11300500C94340011241FBECFE5D8E0DEBFCDBF21
S11300600E9436000C94B7000C940000CF93DF93E9
S113007000D0CDB7DEB781B3806281BB81B3806429
S113008081BB81B3806881BB81B3806181BB81B353
S11300908E7F81BB81B38D7F81BB82B3816082BB44
S11300A082B3826082BB85E090E09A8389831AC020
S11300B022B349815A8181E090E002C0880F991FE0
S11300C04A95E2F7822B82BB89819A8101969A83B1
S11300D089832FEF83EC99E0215080409040E1F731
S11300E000C0000089819A81089710F48099E0CFBC
S11300F089819A8101979A8389831BC022B349819C
S11301005A8181E090E002C0880F991F4A95E2F776
S11301108095822382BB89819A8101979A838983FE
S11301202FEF83EC99E0215080409040E1F700C02C
S1130130000089819A81059710F08099DFCF898129
S11301409A8101969A8389830FC082B3806182BBAE
S11301502FEF83ED90E3215080409040E1F700C001
S1130160000082B38F7E82BB8199EFCFBBCFF8941E
S1050170FFCFBB
S9030000FC
