S00D000054696D65722E7372656316
S11300000C942A000C943C000C943C000C943C008E
S11300100C943C000C943C000C943C000C943C006C
S11300200C943C000C943C000C949A000C94C10079
S11300300C943C000C943C000C943C000C943C004C
S11300400C943C000C943C000C943C000C943C003C
S11300500C943C0011241FBECFE5D8E0DEBFCDBF19
S113006020E0A0E6B0E001C01D92A736B207E1F798
S11300700E9442000C94ED000C9400008BB3809518
S11300808BBB0895CF93DF9300D000D0CDB7DEB7FC
S11300908FEF8ABB78948EE390E00E94950088E00D
S11300A0898382E08A831B828C8380EF0E94920082
S11300B0CE0101960E945D00FFCF009779F19093E5
S11300C0640080936300FC018081882311F08830F0
S11300D019F493B7892B83BFE0916300F091640016
S11300E08381883018F493B7892B83BFE091630030
S11300F0F09164008181882311F0823019F499B75A
S1130100892B89BFE0916300F09164008281823081
S113011038F499B7892B89BF80E0089581E0089568
S113012081E008958CBF81E00895909362008093EC
S1130130610008951F920F920FB60F9211242F930E
S11301403F934F935F936F937F938F939F93AF935B
S1130150BF93EF93FF93E0916100F09162000995E2
S1130160FF91EF91BF91AF919F918F917F916F918B
S11301705F914F913F912F910F900FBE0F901F9061
S113018018951F920F920FB60F9211242F933F933D
S11301904F935F936F937F938F939F93AF93BF938B
S11301A0EF93FF93809160008F5F80936000E091F4
S11301B06500F09166000995FF91EF91BF91AF91B1
S11301C09F918F917F916F915F914F913F912F916B
S11101D00F900FBE0F901F901895F894FFCF5C
S9030000FC
